{
  "_format": "hh-sol-artifact-1",
  "contractName": "ProcessCenter",
  "sourceName": "contracts/ProcessCenter.sol",
  "abi": [
    {
      "inputs": [
        {
          "internalType": "address",
          "name": "_followFactory",
          "type": "address"
        },
        {
          "internalType": "address",
          "name": "_followManage",
          "type": "address"
        }
      ],
      "stateMutability": "nonpayable",
      "type": "constructor"
    },
    {
      "inputs": [],
      "name": "ZeroAddress",
      "type": "error"
    },
    {
      "inputs": [
        {
          "internalType": "uint256",
          "name": "_id",
          "type": "uint256"
        }
      ],
      "name": "_getBorrower",
      "outputs": [
        {
          "internalType": "address",
          "name": "thisBorrower",
          "type": "address"
        }
      ],
      "stateMutability": "view",
      "type": "function"
    },
    {
      "inputs": [
        {
          "internalType": "uint256",
          "name": "_id",
          "type": "uint256"
        }
      ],
      "name": "_getCatpitalPool",
      "outputs": [
        {
          "internalType": "address",
          "name": "",
          "type": "address"
        }
      ],
      "stateMutability": "view",
      "type": "function"
    },
    {
      "inputs": [],
      "name": "_getFeeAddress",
      "outputs": [
        {
          "internalType": "address",
          "name": "",
          "type": "address"
        }
      ],
      "stateMutability": "view",
      "type": "function"
    },
    {
      "inputs": [],
      "name": "_getHandleAddress",
      "outputs": [
        {
          "internalType": "address",
          "name": "",
          "type": "address"
        }
      ],
      "stateMutability": "view",
      "type": "function"
    },
    {
      "inputs": [
        {
          "internalType": "address",
          "name": "userAddress",
          "type": "address"
        }
      ],
      "name": "_getIfBlackList",
      "outputs": [
        {
          "internalType": "bool",
          "name": "",
          "type": "bool"
        }
      ],
      "stateMutability": "view",
      "type": "function"
    },
    {
      "inputs": [
        {
          "internalType": "address",
          "name": "userAddress",
          "type": "address"
        }
      ],
      "name": "_getIfCreate",
      "outputs": [
        {
          "internalType": "bool",
          "name": "",
          "type": "bool"
        }
      ],
      "stateMutability": "view",
      "type": "function"
    },
    {
      "inputs": [
        {
          "internalType": "uint256",
          "name": "_id",
          "type": "uint256"
        }
      ],
      "name": "_getIfCreateRefundPool",
      "outputs": [
        {
          "internalType": "bool",
          "name": "",
          "type": "bool"
        }
      ],
      "stateMutability": "view",
      "type": "function"
    },
    {
      "inputs": [],
      "name": "_getLastId",
      "outputs": [
        {
          "internalType": "uint256",
          "name": "",
          "type": "uint256"
        }
      ],
      "stateMutability": "view",
      "type": "function"
    },
    {
      "inputs": [],
      "name": "_getMultiFee",
      "outputs": [
        {
          "internalType": "uint8",
          "name": "",
          "type": "uint8"
        }
      ],
      "stateMutability": "view",
      "type": "function"
    },
    {
      "inputs": [],
      "name": "_getRefundFactory",
      "outputs": [
        {
          "internalType": "address",
          "name": "",
          "type": "address"
        }
      ],
      "stateMutability": "view",
      "type": "function"
    },
    {
      "inputs": [
        {
          "internalType": "uint256",
          "name": "_id",
          "type": "uint256"
        }
      ],
      "name": "_getRefundPool",
      "outputs": [
        {
          "internalType": "address",
          "name": "",
          "type": "address"
        }
      ],
      "stateMutability": "view",
      "type": "function"
    },
    {
      "inputs": [],
      "name": "_getSingleFee",
      "outputs": [
        {
          "internalType": "uint8",
          "name": "",
          "type": "uint8"
        }
      ],
      "stateMutability": "view",
      "type": "function"
    },
    {
      "inputs": [
        {
          "internalType": "uint256",
          "name": "_id",
          "type": "uint256"
        }
      ],
      "name": "_getThisCatpitalPool",
      "outputs": [
        {
          "internalType": "address",
          "name": "",
          "type": "address"
        }
      ],
      "stateMutability": "view",
      "type": "function"
    },
    {
      "inputs": [
        {
          "internalType": "uint256",
          "name": "_id",
          "type": "uint256"
        },
        {
          "internalType": "uint32",
          "name": "_tradeId",
          "type": "uint32"
        }
      ],
      "name": "_getTokenId",
      "outputs": [
        {
          "internalType": "uint256",
          "name": "thisTokenId",
          "type": "uint256"
        }
      ],
      "stateMutability": "view",
      "type": "function"
    },
    {
      "inputs": [
        {
          "internalType": "address",
          "name": "userAddress",
          "type": "address"
        }
      ],
      "name": "_userToCatpitalPool",
      "outputs": [
        {
          "internalType": "address",
          "name": "",
          "type": "address"
        }
      ],
      "stateMutability": "view",
      "type": "function"
    },
    {
      "inputs": [],
      "name": "getERC3525Address",
      "outputs": [
        {
          "internalType": "address",
          "name": "",
          "type": "address"
        }
      ],
      "stateMutability": "view",
      "type": "function"
    },
    {
      "inputs": [
        {
          "internalType": "uint256",
          "name": "_id",
          "type": "uint256"
        },
        {
          "internalType": "uint32",
          "name": "_tradeId",
          "type": "uint32"
        }
      ],
      "name": "getListUint16",
      "outputs": [
        {
          "internalType": "uint16[5]",
          "name": "listUint16",
          "type": "uint16[5]"
        }
      ],
      "stateMutability": "view",
      "type": "function"
    },
    {
      "inputs": [
        {
          "internalType": "uint256",
          "name": "_id",
          "type": "uint256"
        },
        {
          "internalType": "uint32",
          "name": "_tradeId",
          "type": "uint32"
        }
      ],
      "name": "getListUint256",
      "outputs": [
        {
          "internalType": "uint256[4]",
          "name": "listUint256",
          "type": "uint256[4]"
        }
      ],
      "stateMutability": "view",
      "type": "function"
    },
    {
      "inputs": [
        {
          "internalType": "uint256",
          "name": "_id",
          "type": "uint256"
        },
        {
          "internalType": "uint32",
          "name": "_tradeId",
          "type": "uint32"
        }
      ],
      "name": "getListUint56",
      "outputs": [
        {
          "internalType": "uint56[2]",
          "name": "listUint56",
          "type": "uint56[2]"
        }
      ],
      "stateMutability": "view",
      "type": "function"
    },
    {
      "inputs": [
        {
          "internalType": "uint256",
          "name": "_id",
          "type": "uint256"
        },
        {
          "internalType": "uint32",
          "name": "_tradeId",
          "type": "uint32"
        }
      ],
      "name": "getListUint8",
      "outputs": [
        {
          "internalType": "uint8[4]",
          "name": "listUint8",
          "type": "uint8[4]"
        }
      ],
      "stateMutability": "view",
      "type": "function"
    }
  ],
  "bytecode": "0x60806040523480156200001157600080fd5b506040516200280e3803806200280e83398181016040528101906200003791906200012a565b816000806101000a81548173ffffffffffffffffffffffffffffffffffffffff021916908373ffffffffffffffffffffffffffffffffffffffff16021790555080600160006101000a81548173ffffffffffffffffffffffffffffffffffffffff021916908373ffffffffffffffffffffffffffffffffffffffff160217905550505062000171565b600080fd5b600073ffffffffffffffffffffffffffffffffffffffff82169050919050565b6000620000f282620000c5565b9050919050565b6200010481620000e5565b81146200011057600080fd5b50565b6000815190506200012481620000f9565b92915050565b60008060408385031215620001445762000143620000c0565b5b6000620001548582860162000113565b9250506020620001678582860162000113565b9150509250929050565b61268d80620001816000396000f3fe608060405234801561001057600080fd5b506004361061012c5760003560e01c806388221593116100ad578063a8f0a42211610071578063a8f0a422146103b9578063b6eb85f5146103e9578063cf85133814610419578063d4835d7314610437578063fda5d8f2146104555761012c565b806388221593146102ed578063883aaf091461031d578063961e3ff71461033b5780639c3e653114610359578063a5b134ca146103895761012c565b80636477e0f0116100f45780636477e0f0146101fd5780636b176ea21461022d5780636be7ce4e1461025d578063744d6de81461028d5780638714fa0d146102bd5761012c565b806323981d5c14610131578063356f230d1461016157806335e06a1f1461017f5780633c1afb57146101af5780634638f0f2146101df575b600080fd5b61014b60048036038101906101469190611d88565b610473565b6040516101589190611e73565b60405180910390f35b61016961073f565b6040516101769190611e9d565b60405180910390f35b61019960048036038101906101949190611eb8565b6107e9565b6040516101a69190611f00565b60405180910390f35b6101c960048036038101906101c49190611f79565b6108ab565b6040516101d69190611f00565b60405180910390f35b6101e7610977565b6040516101f49190611fb5565b60405180910390f35b61021760048036038101906102129190611eb8565b610a8a565b6040516102249190611fb5565b60405180910390f35b61024760048036038101906102429190611d88565b610b1e565b604051610254919061208e565b60405180910390f35b61027760048036038101906102729190611d88565b610cba565b6040516102849190611e9d565b60405180910390f35b6102a760048036038101906102a29190611eb8565b610d5a565b6040516102b49190611fb5565b60405180910390f35b6102d760048036038101906102d29190611d88565b610e78565b6040516102e49190612162565b60405180910390f35b61030760048036038101906103029190611f79565b61121e565b6040516103149190611fb5565b60405180910390f35b6103256112d5565b6040516103329190611fb5565b60405180910390f35b6103436113e8565b6040516103509190611fb5565b60405180910390f35b610373600480360381019061036e9190611eb8565b611494565b6040516103809190611fb5565b60405180910390f35b6103a3600480360381019061039e9190611eb8565b61154b565b6040516103b09190611fb5565b60405180910390f35b6103d360048036038101906103ce9190611d88565b61165e565b6040516103e09190612235565b60405180910390f35b61040360048036038101906103fe9190611f79565b611946565b6040516104109190611f00565b60405180910390f35b610421611a14565b60405161042e919061225f565b60405180910390f35b61043f611ac0565b60405161044c9190611fb5565b60405180910390f35b61045d611bd3565b60405161046a919061225f565b60405180910390f35b61047b611c7f565b600061048684610d5a565b90508073ffffffffffffffffffffffffffffffffffffffff166316474434846040518263ffffffff1660e01b81526004016104c19190612289565b6102206040518083038186803b1580156104da57600080fd5b505afa1580156104ee573d6000803e3d6000fd5b505050506040513d601f19601f820116820180604052508101906105129190612573565b61016001518260006004811061052b5761052a6125a1565b5b6020020181815250508073ffffffffffffffffffffffffffffffffffffffff166316474434846040518263ffffffff1660e01b815260040161056d9190612289565b6102206040518083038186803b15801561058657600080fd5b505afa15801561059a573d6000803e3d6000fd5b505050506040513d601f19601f820116820180604052508101906105be9190612573565b6101800151826001600481106105d7576105d66125a1565b5b6020020181815250508073ffffffffffffffffffffffffffffffffffffffff166316474434846040518263ffffffff1660e01b81526004016106199190612289565b6102206040518083038186803b15801561063257600080fd5b505afa158015610646573d6000803e3d6000fd5b505050506040513d601f19601f8201168201806040525081019061066a9190612573565b6101c0015182600260048110610683576106826125a1565b5b6020020181815250508073ffffffffffffffffffffffffffffffffffffffff166316474434846040518263ffffffff1660e01b81526004016106c59190612289565b6102206040518083038186803b1580156106de57600080fd5b505afa1580156106f2573d6000803e3d6000fd5b505050506040513d601f19601f820116820180604052508101906107169190612573565b6101e001518260036004811061072f5761072e6125a1565b5b6020020181815250505092915050565b60008060008054906101000a900473ffffffffffffffffffffffffffffffffffffffff1673ffffffffffffffffffffffffffffffffffffffff1663a8e5862d6040518163ffffffff1660e01b815260040160206040518083038186803b1580156107a857600080fd5b505afa1580156107bc573d6000803e3d6000fd5b505050506040513d601f19601f820116820180604052508101906107e091906125d0565b90508091505090565b6000806107f583610d5a565b90506000610801610977565b73ffffffffffffffffffffffffffffffffffffffff1663c2b02b45836040518263ffffffff1660e01b81526004016108399190611fb5565b60206040518083038186803b15801561085157600080fd5b505afa158015610865573d6000803e3d6000fd5b505050506040513d601f19601f8201168201806040525081019061088991906125d0565b9050600581141561089f576001925050506108a6565b6000925050505b919050565b60008060008054906101000a900473ffffffffffffffffffffffffffffffffffffffff1673ffffffffffffffffffffffffffffffffffffffff1663c2b02b45846040518263ffffffff1660e01b81526004016109079190611fb5565b60206040518083038186803b15801561091f57600080fd5b505afa158015610933573d6000803e3d6000fd5b505050506040513d601f19601f8201168201806040525081019061095791906125d0565b9050600581141561096c576001915050610972565b60009150505b919050565b600080600160009054906101000a900473ffffffffffffffffffffffffffffffffffffffff1673ffffffffffffffffffffffffffffffffffffffff16636bd969b36040518163ffffffff1660e01b815260040160206040518083038186803b1580156109e257600080fd5b505afa1580156109f6573d6000803e3d6000fd5b505050506040513d601f19601f82011682018060405250810190610a1a91906125fd565b9050600073ffffffffffffffffffffffffffffffffffffffff168173ffffffffffffffffffffffffffffffffffffffff161415610a83576040517fd92e233d00000000000000000000000000000000000000000000000000000000815260040160405180910390fd5b8091505090565b600080610a9683610d5a565b90508073ffffffffffffffffffffffffffffffffffffffff16631cb0c3e76040518163ffffffff1660e01b815260040160206040518083038186803b158015610ade57600080fd5b505afa158015610af2573d6000803e3d6000fd5b505050506040513d601f19601f82011682018060405250810190610b1691906125fd565b915050919050565b610b26611ca1565b6000610b3184610d5a565b90508073ffffffffffffffffffffffffffffffffffffffff166316474434846040518263ffffffff1660e01b8152600401610b6c9190612289565b6102206040518083038186803b158015610b8557600080fd5b505afa158015610b99573d6000803e3d6000fd5b505050506040513d601f19601f82011682018060405250810190610bbd9190612573565b610120015182600060028110610bd657610bd56125a1565b5b602002019066ffffffffffffff16908166ffffffffffffff16815250508073ffffffffffffffffffffffffffffffffffffffff166316474434846040518263ffffffff1660e01b8152600401610c2c9190612289565b6102206040518083038186803b158015610c4557600080fd5b505afa158015610c59573d6000803e3d6000fd5b505050506040513d601f19601f82011682018060405250810190610c7d9190612573565b610140015182600160028110610c9657610c956125a1565b5b602002019066ffffffffffffff16908166ffffffffffffff16815250505092915050565b600080610cc684610d5a565b90508073ffffffffffffffffffffffffffffffffffffffff166320f76482846040518263ffffffff1660e01b8152600401610d019190612289565b60206040518083038186803b158015610d1957600080fd5b505afa158015610d2d573d6000803e3d6000fd5b505050506040513d601f19601f82011682018060405250810190610d5191906125d0565b91505092915050565b60008060008054906101000a900473ffffffffffffffffffffffffffffffffffffffff1673ffffffffffffffffffffffffffffffffffffffff1663cae55404846040518263ffffffff1660e01b8152600401610db69190611e9d565b60206040518083038186803b158015610dce57600080fd5b505afa158015610de2573d6000803e3d6000fd5b505050506040513d601f19601f82011682018060405250810190610e0691906125fd565b9050600073ffffffffffffffffffffffffffffffffffffffff168173ffffffffffffffffffffffffffffffffffffffff161415610e6f576040517fd92e233d00000000000000000000000000000000000000000000000000000000815260040160405180910390fd5b80915050919050565b610e80611cc3565b6000610e8b84610d5a565b90508073ffffffffffffffffffffffffffffffffffffffff166316474434846040518263ffffffff1660e01b8152600401610ec69190612289565b6102206040518083038186803b158015610edf57600080fd5b505afa158015610ef3573d6000803e3d6000fd5b505050506040513d601f19601f82011682018060405250810190610f179190612573565b6080015182600060058110610f2f57610f2e6125a1565b5b602002019061ffff16908161ffff16815250508073ffffffffffffffffffffffffffffffffffffffff166316474434846040518263ffffffff1660e01b8152600401610f7b9190612289565b6102206040518083038186803b158015610f9457600080fd5b505afa158015610fa8573d6000803e3d6000fd5b505050506040513d601f19601f82011682018060405250810190610fcc9190612573565b60a0015182600160058110610fe457610fe36125a1565b5b602002019061ffff16908161ffff16815250508073ffffffffffffffffffffffffffffffffffffffff166316474434846040518263ffffffff1660e01b81526004016110309190612289565b6102206040518083038186803b15801561104957600080fd5b505afa15801561105d573d6000803e3d6000fd5b505050506040513d601f19601f820116820180604052508101906110819190612573565b60c0015182600260058110611099576110986125a1565b5b602002019061ffff16908161ffff16815250508073ffffffffffffffffffffffffffffffffffffffff166316474434846040518263ffffffff1660e01b81526004016110e59190612289565b6102206040518083038186803b1580156110fe57600080fd5b505afa158015611112573d6000803e3d6000fd5b505050506040513d601f19601f820116820180604052508101906111369190612573565b60e001518260036005811061114e5761114d6125a1565b5b602002019061ffff16908161ffff16815250508073ffffffffffffffffffffffffffffffffffffffff166316474434846040518263ffffffff1660e01b815260040161119a9190612289565b6102206040518083038186803b1580156111b357600080fd5b505afa1580156111c7573d6000803e3d6000fd5b505050506040513d601f19601f820116820180604052508101906111eb9190612573565b610100015182600460058110611204576112036125a1565b5b602002019061ffff16908161ffff16815250505092915050565b60008060008054906101000a900473ffffffffffffffffffffffffffffffffffffffff1673ffffffffffffffffffffffffffffffffffffffff1663fa798721846040518263ffffffff1660e01b815260040161127a9190611fb5565b60206040518083038186803b15801561129257600080fd5b505afa1580156112a6573d6000803e3d6000fd5b505050506040513d601f19601f820116820180604052508101906112ca91906125fd565b905080915050919050565b600080600160009054906101000a900473ffffffffffffffffffffffffffffffffffffffff1673ffffffffffffffffffffffffffffffffffffffff16634e7ceacb6040518163ffffffff1660e01b815260040160206040518083038186803b15801561134057600080fd5b505afa158015611354573d6000803e3d6000fd5b505050506040513d601f19601f8201168201806040525081019061137891906125fd565b9050600073ffffffffffffffffffffffffffffffffffffffff168173ffffffffffffffffffffffffffffffffffffffff1614156113e1576040517fd92e233d00000000000000000000000000000000000000000000000000000000815260040160405180910390fd5b8091505090565b600080600160009054906101000a900473ffffffffffffffffffffffffffffffffffffffff1673ffffffffffffffffffffffffffffffffffffffff1663961e3ff76040518163ffffffff1660e01b815260040160206040518083038186803b15801561145357600080fd5b505afa158015611467573d6000803e3d6000fd5b505050506040513d601f19601f8201168201806040525081019061148b91906125fd565b90508091505090565b60008060008054906101000a900473ffffffffffffffffffffffffffffffffffffffff1673ffffffffffffffffffffffffffffffffffffffff1663cae55404846040518263ffffffff1660e01b81526004016114f09190611e9d565b60206040518083038186803b15801561150857600080fd5b505afa15801561151c573d6000803e3d6000fd5b505050506040513d601f19601f8201168201806040525081019061154091906125fd565b905080915050919050565b60008061155783610d5a565b90506000611563610977565b73ffffffffffffffffffffffffffffffffffffffff1663a1a6e6f3836040518263ffffffff1660e01b815260040161159b9190611fb5565b60206040518083038186803b1580156115b357600080fd5b505afa1580156115c7573d6000803e3d6000fd5b505050506040513d601f19601f820116820180604052508101906115eb91906125fd565b9050600073ffffffffffffffffffffffffffffffffffffffff168173ffffffffffffffffffffffffffffffffffffffff161415611654576040517fd92e233d00000000000000000000000000000000000000000000000000000000815260040160405180910390fd5b8092505050919050565b611666611ce5565b600061167184610d5a565b90508073ffffffffffffffffffffffffffffffffffffffff166316474434846040518263ffffffff1660e01b81526004016116ac9190612289565b6102206040518083038186803b1580156116c557600080fd5b505afa1580156116d9573d6000803e3d6000fd5b505050506040513d601f19601f820116820180604052508101906116fd9190612573565b6000015182600060048110611715576117146125a1565b5b602002019060ff16908160ff16815250508073ffffffffffffffffffffffffffffffffffffffff166316474434846040518263ffffffff1660e01b815260040161175f9190612289565b6102206040518083038186803b15801561177857600080fd5b505afa15801561178c573d6000803e3d6000fd5b505050506040513d601f19601f820116820180604052508101906117b09190612573565b60200151826001600481106117c8576117c76125a1565b5b602002019060ff16908160ff16815250508073ffffffffffffffffffffffffffffffffffffffff166316474434846040518263ffffffff1660e01b81526004016118129190612289565b6102206040518083038186803b15801561182b57600080fd5b505afa15801561183f573d6000803e3d6000fd5b505050506040513d601f19601f820116820180604052508101906118639190612573565b604001518260026004811061187b5761187a6125a1565b5b602002019060ff16908160ff16815250508073ffffffffffffffffffffffffffffffffffffffff166316474434846040518263ffffffff1660e01b81526004016118c59190612289565b6102206040518083038186803b1580156118de57600080fd5b505afa1580156118f2573d6000803e3d6000fd5b505050506040513d601f19601f820116820180604052508101906119169190612573565b606001518260036004811061192e5761192d6125a1565b5b602002019060ff16908160ff16815250505092915050565b600080600160009054906101000a900473ffffffffffffffffffffffffffffffffffffffff1673ffffffffffffffffffffffffffffffffffffffff1663778745b6846040518263ffffffff1660e01b81526004016119a49190611fb5565b60206040518083038186803b1580156119bc57600080fd5b505afa1580156119d0573d6000803e3d6000fd5b505050506040513d601f19601f820116820180604052508101906119f491906125d0565b90506005811415611a09576001915050611a0f565b60009150505b919050565b600080600160009054906101000a900473ffffffffffffffffffffffffffffffffffffffff1673ffffffffffffffffffffffffffffffffffffffff1663bfd5b21f6040518163ffffffff1660e01b815260040160206040518083038186803b158015611a7f57600080fd5b505afa158015611a93573d6000803e3d6000fd5b505050506040513d601f19601f82011682018060405250810190611ab7919061262a565b90508091505090565b600080600160009054906101000a900473ffffffffffffffffffffffffffffffffffffffff1673ffffffffffffffffffffffffffffffffffffffff1663e16d31b26040518163ffffffff1660e01b815260040160206040518083038186803b158015611b2b57600080fd5b505afa158015611b3f573d6000803e3d6000fd5b505050506040513d601f19601f82011682018060405250810190611b6391906125fd565b9050600073ffffffffffffffffffffffffffffffffffffffff168173ffffffffffffffffffffffffffffffffffffffff161415611bcc576040517fd92e233d00000000000000000000000000000000000000000000000000000000815260040160405180910390fd5b8091505090565b600080600160009054906101000a900473ffffffffffffffffffffffffffffffffffffffff1673ffffffffffffffffffffffffffffffffffffffff16637f93cf416040518163ffffffff1660e01b815260040160206040518083038186803b158015611c3e57600080fd5b505afa158015611c52573d6000803e3d6000fd5b505050506040513d601f19601f82011682018060405250810190611c76919061262a565b90508091505090565b6040518060800160405280600490602082028036833780820191505090505090565b6040518060400160405280600290602082028036833780820191505090505090565b6040518060a00160405280600590602082028036833780820191505090505090565b6040518060800160405280600490602082028036833780820191505090505090565b6000604051905090565b600080fd5b6000819050919050565b611d2981611d16565b8114611d3457600080fd5b50565b600081359050611d4681611d20565b92915050565b600063ffffffff82169050919050565b611d6581611d4c565b8114611d7057600080fd5b50565b600081359050611d8281611d5c565b92915050565b60008060408385031215611d9f57611d9e611d11565b5b6000611dad85828601611d37565b9250506020611dbe85828601611d73565b9150509250929050565b600060049050919050565b600081905092915050565b6000819050919050565b611df181611d16565b82525050565b6000611e038383611de8565b60208301905092915050565b6000602082019050919050565b611e2581611dc8565b611e2f8184611dd3565b9250611e3a82611dde565b8060005b83811015611e6b578151611e528782611df7565b9650611e5d83611e0f565b925050600181019050611e3e565b505050505050565b6000608082019050611e886000830184611e1c565b92915050565b611e9781611d16565b82525050565b6000602082019050611eb26000830184611e8e565b92915050565b600060208284031215611ece57611ecd611d11565b5b6000611edc84828501611d37565b91505092915050565b60008115159050919050565b611efa81611ee5565b82525050565b6000602082019050611f156000830184611ef1565b92915050565b600073ffffffffffffffffffffffffffffffffffffffff82169050919050565b6000611f4682611f1b565b9050919050565b611f5681611f3b565b8114611f6157600080fd5b50565b600081359050611f7381611f4d565b92915050565b600060208284031215611f8f57611f8e611d11565b5b6000611f9d84828501611f64565b91505092915050565b611faf81611f3b565b82525050565b6000602082019050611fca6000830184611fa6565b92915050565b600060029050919050565b600081905092915050565b6000819050919050565b600066ffffffffffffff82169050919050565b61200c81611ff0565b82525050565b600061201e8383612003565b60208301905092915050565b6000602082019050919050565b61204081611fd0565b61204a8184611fdb565b925061205582611fe6565b8060005b8381101561208657815161206d8782612012565b96506120788361202a565b925050600181019050612059565b505050505050565b60006040820190506120a36000830184612037565b92915050565b600060059050919050565b600081905092915050565b6000819050919050565b600061ffff82169050919050565b6120e0816120c9565b82525050565b60006120f283836120d7565b60208301905092915050565b6000602082019050919050565b612114816120a9565b61211e81846120b4565b9250612129826120bf565b8060005b8381101561215a57815161214187826120e6565b965061214c836120fe565b92505060018101905061212d565b505050505050565b600060a082019050612177600083018461210b565b92915050565b600060049050919050565b600081905092915050565b6000819050919050565b600060ff82169050919050565b6121b38161219d565b82525050565b60006121c583836121aa565b60208301905092915050565b6000602082019050919050565b6121e78161217d565b6121f18184612188565b92506121fc82612193565b8060005b8381101561222d57815161221487826121b9565b965061221f836121d1565b925050600181019050612200565b505050505050565b600060808201905061224a60008301846121de565b92915050565b6122598161219d565b82525050565b60006020820190506122746000830184612250565b92915050565b61228381611d4c565b82525050565b600060208201905061229e600083018461227a565b92915050565b600080fd5b6000601f19601f8301169050919050565b7f4e487b7100000000000000000000000000000000000000000000000000000000600052604160045260246000fd5b6122f2826122a9565b810181811067ffffffffffffffff82111715612311576123106122ba565b5b80604052505050565b6000612324611d07565b905061233082826122e9565b919050565b61233e8161219d565b811461234957600080fd5b50565b60008151905061235b81612335565b92915050565b61236a816120c9565b811461237557600080fd5b50565b60008151905061238781612361565b92915050565b61239681611ff0565b81146123a157600080fd5b50565b6000815190506123b38161238d565b92915050565b6000815190506123c881611d20565b92915050565b6000815190506123dd81611f4d565b92915050565b600061022082840312156123fa576123f96122a4565b5b61240561022061231a565b905060006124158482850161234c565b60008301525060206124298482850161234c565b602083015250604061243d8482850161234c565b60408301525060606124518482850161234c565b606083015250608061246584828501612378565b60808301525060a061247984828501612378565b60a08301525060c061248d84828501612378565b60c08301525060e06124a184828501612378565b60e0830152506101006124b684828501612378565b610100830152506101206124cc848285016123a4565b610120830152506101406124e2848285016123a4565b610140830152506101606124f8848285016123b9565b6101608301525061018061250e848285016123b9565b610180830152506101a0612524848285016123b9565b6101a0830152506101c061253a848285016123b9565b6101c0830152506101e0612550848285016123b9565b6101e083015250610200612566848285016123ce565b6102008301525092915050565b6000610220828403121561258a57612589611d11565b5b6000612598848285016123e3565b91505092915050565b7f4e487b7100000000000000000000000000000000000000000000000000000000600052603260045260246000fd5b6000602082840312156125e6576125e5611d11565b5b60006125f4848285016123b9565b91505092915050565b60006020828403121561261357612612611d11565b5b6000612621848285016123ce565b91505092915050565b6000602082840312156126405761263f611d11565b5b600061264e8482850161234c565b9150509291505056fea26469706673582212201a7d60a2687a0cf1ddcfd68ab18677984b9fe24801ddf15a114f94fb9789fe1064736f6c63430008090033",
  "linkReferences": {},
  "deployedLinkReferences": {}
}